{
  "contractName": "DynamicCashPool",
  "abi": [
    {
      "inputs": [
        {
          "internalType": "uint256",
          "name": "_lockupPeriod",
          "type": "uint256"
        },
        {
          "internalType": "uint256",
          "name": "_rebalanceInterval",
          "type": "uint256"
        }
      ],
      "stateMutability": "nonpayable",
      "type": "constructor"
    },
    {
      "anonymous": false,
      "inputs": [
        {
          "indexed": true,
          "internalType": "address",
          "name": "participant",
          "type": "address"
        },
        {
          "indexed": false,
          "internalType": "uint256",
          "name": "amount",
          "type": "uint256"
        },
        {
          "indexed": false,
          "internalType": "address",
          "name": "token",
          "type": "address"
        }
      ],
      "name": "Contribution",
      "type": "event"
    },
    {
      "anonymous": false,
      "inputs": [
        {
          "indexed": true,
          "internalType": "address",
          "name": "participant",
          "type": "address"
        },
        {
          "indexed": true,
          "internalType": "address",
          "name": "referee",
          "type": "address"
        },
        {
          "indexed": false,
          "internalType": "uint256",
          "name": "bonusAmount",
          "type": "uint256"
        }
      ],
      "name": "ReferralBonus",
      "type": "event"
    },
    {
      "anonymous": false,
      "inputs": [
        {
          "indexed": true,
          "internalType": "address",
          "name": "participant",
          "type": "address"
        },
        {
          "indexed": false,
          "internalType": "uint256",
          "name": "amount",
          "type": "uint256"
        },
        {
          "indexed": false,
          "internalType": "address",
          "name": "token",
          "type": "address"
        }
      ],
      "name": "Withdrawal",
      "type": "event"
    },
    {
      "inputs": [
        {
          "internalType": "address",
          "name": "",
          "type": "address"
        }
      ],
      "name": "admins",
      "outputs": [
        {
          "internalType": "bool",
          "name": "",
          "type": "bool"
        }
      ],
      "stateMutability": "view",
      "type": "function"
    },
    {
      "inputs": [
        {
          "internalType": "address",
          "name": "",
          "type": "address"
        }
      ],
      "name": "contributionAmounts",
      "outputs": [
        {
          "internalType": "uint256",
          "name": "",
          "type": "uint256"
        }
      ],
      "stateMutability": "view",
      "type": "function"
    },
    {
      "inputs": [],
      "name": "lastRebalanceTimestamp",
      "outputs": [
        {
          "internalType": "uint256",
          "name": "",
          "type": "uint256"
        }
      ],
      "stateMutability": "view",
      "type": "function"
    },
    {
      "inputs": [],
      "name": "lockupPeriod",
      "outputs": [
        {
          "internalType": "uint256",
          "name": "",
          "type": "uint256"
        }
      ],
      "stateMutability": "view",
      "type": "function"
    },
    {
      "inputs": [
        {
          "internalType": "address",
          "name": "",
          "type": "address"
        }
      ],
      "name": "participants",
      "outputs": [
        {
          "internalType": "bool",
          "name": "exists",
          "type": "bool"
        },
        {
          "internalType": "uint256",
          "name": "joinedTimestamp",
          "type": "uint256"
        },
        {
          "internalType": "bool",
          "name": "isWhitelisted",
          "type": "bool"
        }
      ],
      "stateMutability": "view",
      "type": "function"
    },
    {
      "inputs": [],
      "name": "poolOwner",
      "outputs": [
        {
          "internalType": "address",
          "name": "",
          "type": "address"
        }
      ],
      "stateMutability": "view",
      "type": "function"
    },
    {
      "inputs": [],
      "name": "rebalanceInterval",
      "outputs": [
        {
          "internalType": "uint256",
          "name": "",
          "type": "uint256"
        }
      ],
      "stateMutability": "view",
      "type": "function"
    },
    {
      "inputs": [
        {
          "internalType": "address",
          "name": "",
          "type": "address"
        }
      ],
      "name": "referrals",
      "outputs": [
        {
          "internalType": "bool",
          "name": "",
          "type": "bool"
        }
      ],
      "stateMutability": "view",
      "type": "function"
    },
    {
      "inputs": [
        {
          "internalType": "address",
          "name": "",
          "type": "address"
        }
      ],
      "name": "totalBalances",
      "outputs": [
        {
          "internalType": "uint256",
          "name": "",
          "type": "uint256"
        }
      ],
      "stateMutability": "view",
      "type": "function"
    },
    {
      "inputs": [
        {
          "internalType": "address",
          "name": "",
          "type": "address"
        }
      ],
      "name": "vestingTimestamps",
      "outputs": [
        {
          "internalType": "uint256",
          "name": "",
          "type": "uint256"
        }
      ],
      "stateMutability": "view",
      "type": "function"
    },
    {
      "inputs": [
        {
          "internalType": "address",
          "name": "token",
          "type": "address"
        },
        {
          "internalType": "uint256",
          "name": "amount",
          "type": "uint256"
        }
      ],
      "name": "contribute",
      "outputs": [],
      "stateMutability": "nonpayable",
      "type": "function"
    },
    {
      "inputs": [
        {
          "internalType": "address",
          "name": "token",
          "type": "address"
        },
        {
          "internalType": "uint256",
          "name": "amount",
          "type": "uint256"
        }
      ],
      "name": "withdraw",
      "outputs": [],
      "stateMutability": "nonpayable",
      "type": "function"
    },
    {
      "inputs": [
        {
          "internalType": "address",
          "name": "admin",
          "type": "address"
        }
      ],
      "name": "addAdmin",
      "outputs": [],
      "stateMutability": "nonpayable",
      "type": "function"
    },
    {
      "inputs": [
        {
          "internalType": "address",
          "name": "admin",
          "type": "address"
        }
      ],
      "name": "removeAdmin",
      "outputs": [],
      "stateMutability": "nonpayable",
      "type": "function"
    },
    {
      "inputs": [
        {
          "internalType": "address",
          "name": "participant",
          "type": "address"
        }
      ],
      "name": "whitelistParticipant",
      "outputs": [],
      "stateMutability": "nonpayable",
      "type": "function"
    },
    {
      "inputs": [
        {
          "internalType": "address",
          "name": "participant",
          "type": "address"
        }
      ],
      "name": "removeWhitelistedParticipant",
      "outputs": [],
      "stateMutability": "nonpayable",
      "type": "function"
    },
    {
      "inputs": [
        {
          "internalType": "address",
          "name": "participant",
          "type": "address"
        },
        {
          "internalType": "uint256",
          "name": "timestamp",
          "type": "uint256"
        }
      ],
      "name": "setVestingTimestamp",
      "outputs": [],
      "stateMutability": "nonpayable",
      "type": "function"
    },
    {
      "inputs": [
        {
          "internalType": "address",
          "name": "referee",
          "type": "address"
        }
      ],
      "name": "setReferral",
      "outputs": [],
      "stateMutability": "nonpayable",
      "type": "function"
    },
    {
      "inputs": [
        {
          "internalType": "address",
          "name": "participant",
          "type": "address"
        },
        {
          "internalType": "address",
          "name": "token",
          "type": "address"
        }
      ],
      "name": "getParticipantBalance",
      "outputs": [
        {
          "internalType": "uint256",
          "name": "",
          "type": "uint256"
        }
      ],
      "stateMutability": "view",
      "type": "function"
    },
    {
      "inputs": [
        {
          "internalType": "uint256",
          "name": "period",
          "type": "uint256"
        }
      ],
      "name": "setLockupPeriod",
      "outputs": [],
      "stateMutability": "nonpayable",
      "type": "function"
    },
    {
      "inputs": [
        {
          "internalType": "uint256",
          "name": "interval",
          "type": "uint256"
        }
      ],
      "name": "setRebalanceInterval",
      "outputs": [],
      "stateMutability": "nonpayable",
      "type": "function"
    },
    {
      "inputs": [
        {
          "internalType": "address[]",
          "name": "tokens",
          "type": "address[]"
        }
      ],
      "name": "rebalance",
      "outputs": [],
      "stateMutability": "nonpayable",
      "type": "function"
    }
  ],
  "bytecode": "0x608060405234801562000010575f80fd5b50604051620027eb380380620027eb83398181016040528101906200003691906200011d565b3360065f6101000a81548173ffffffffffffffffffffffffffffffffffffffff021916908373ffffffffffffffffffffffffffffffffffffffff1602179055508160048190555080600981905550600160075f3373ffffffffffffffffffffffffffffffffffffffff1673ffffffffffffffffffffffffffffffffffffffff1681526020019081526020015f205f6101000a81548160ff021916908315150217905550505062000162565b5f80fd5b5f819050919050565b620000f981620000e5565b811462000104575f80fd5b50565b5f815190506200011781620000ee565b92915050565b5f8060408385031215620001365762000135620000e1565b5b5f620001458582860162000107565b9250506020620001588582860162000107565b9150509250929050565b61267b80620001705f395ff3fe608060405234801561000f575f80fd5b5060043610610140575f3560e01c80639223de05116100b6578063bea9db6d1161007a578063bea9db6d14610396578063c771c390146103b2578063cf0b2270146103ce578063d4a0bb10146103ec578063ee947a7c14610408578063f3fef3a31461042657610140565b80639223de05146102cc5780639ca423b3146102fc5780639e5914da1461032c578063aee9c87214610348578063b83d81571461037857610140565b80635b7dcaed116101085780635b7dcaed1461021057806364751f221461022c57806370480275146102485780637a854ce9146102645780638418cd99146102945780638b3215dd146102b057610140565b806309e69ede1461014457806316d1d916146101765780631785f53c14610194578063429b62e5146101b057806358959c89146101e0575b5f80fd5b61015e60048036038101906101599190611a58565b610442565b60405161016d93929190611ab5565b60405180910390f35b61017e610481565b60405161018b9190611aea565b60405180910390f35b6101ae60048036038101906101a99190611a58565b610487565b005b6101ca60048036038101906101c59190611a58565b610565565b6040516101d79190611b03565b60405180910390f35b6101fa60048036038101906101f59190611b1c565b610582565b6040516102079190611aea565b60405180910390f35b61022a60048036038101906102259190611b84565b610606565b005b61024660048036038101906102419190611a58565b61069f565b005b610262600480360381019061025d9190611a58565b610782565b005b61027e60048036038101906102799190611a58565b610869565b60405161028b9190611aea565b60405180910390f35b6102ae60048036038101906102a99190611baf565b61087e565b005b6102ca60048036038101906102c59190611baf565b610b31565b005b6102e660048036038101906102e19190611a58565b610c8c565b6040516102f39190611aea565b60405180910390f35b61031660048036038101906103119190611a58565b610ca1565b6040516103239190611b03565b60405180910390f35b61034660048036038101906103419190611a58565b610cbe565b005b610362600480360381019061035d9190611a58565b610e67565b60405161036f9190611aea565b60405180910390f35b610380610e7c565b60405161038d9190611aea565b60405180910390f35b6103b060048036038101906103ab9190611c4e565b610e82565b005b6103cc60048036038101906103c79190611b84565b6111b4565b005b6103d661124d565b6040516103e39190611ca8565b60405180910390f35b61040660048036038101906104019190611a58565b611272565b005b610410611355565b60405161041d9190611aea565b60405180910390f35b610440600480360381019061043b9190611baf565b61135b565b005b6001602052805f5260405f205f91509050806001015f9054906101000a900460ff1690806002015490806003015f9054906101000a900460ff16905083565b60095481565b60065f9054906101000a900473ffffffffffffffffffffffffffffffffffffffff1673ffffffffffffffffffffffffffffffffffffffff163373ffffffffffffffffffffffffffffffffffffffff1614610516576040517f08c379a000000000000000000000000000000000000000000000000000000000815260040161050d90611d41565b60405180910390fd5b60075f8273ffffffffffffffffffffffffffffffffffffffff1673ffffffffffffffffffffffffffffffffffffffff1681526020019081526020015f205f6101000a81549060ff021916905550565b6007602052805f5260405f205f915054906101000a900460ff1681565b5f60015f8473ffffffffffffffffffffffffffffffffffffffff1673ffffffffffffffffffffffffffffffffffffffff1681526020019081526020015f205f015f8373ffffffffffffffffffffffffffffffffffffffff1673ffffffffffffffffffffffffffffffffffffffff1681526020019081526020015f2054905092915050565b60065f9054906101000a900473ffffffffffffffffffffffffffffffffffffffff1673ffffffffffffffffffffffffffffffffffffffff163373ffffffffffffffffffffffffffffffffffffffff1614610695576040517f08c379a000000000000000000000000000000000000000000000000000000000815260040161068c90611d41565b60405180910390fd5b8060098190555050565b60075f3373ffffffffffffffffffffffffffffffffffffffff1673ffffffffffffffffffffffffffffffffffffffff1681526020019081526020015f205f9054906101000a900460ff16610728576040517f08c379a000000000000000000000000000000000000000000000000000000000815260040161071f90611dcf565b60405180910390fd5b6001805f8373ffffffffffffffffffffffffffffffffffffffff1673ffffffffffffffffffffffffffffffffffffffff1681526020019081526020015f206003015f6101000a81548160ff02191690831515021790555050565b60065f9054906101000a900473ffffffffffffffffffffffffffffffffffffffff1673ffffffffffffffffffffffffffffffffffffffff163373ffffffffffffffffffffffffffffffffffffffff1614610811576040517f08c379a000000000000000000000000000000000000000000000000000000000815260040161080890611d41565b60405180910390fd5b600160075f8373ffffffffffffffffffffffffffffffffffffffff1673ffffffffffffffffffffffffffffffffffffffff1681526020019081526020015f205f6101000a81548160ff02191690831515021790555050565b6005602052805f5260405f205f915090505481565b5f81116108c0576040517f08c379a00000000000000000000000000000000000000000000000000000000081526004016108b790611e5d565b60405180910390fd5b5f60015f3373ffffffffffffffffffffffffffffffffffffffff1673ffffffffffffffffffffffffffffffffffffffff1681526020019081526020015f209050806001015f9054906101000a900460ff166109b5576001816001015f6101000a81548160ff0219169083151502179055504281600201819055505f816003015f6101000a81548160ff0219169083151502179055505f33908060018154018082558091505060019003905f5260205f20015f9091909190916101000a81548173ffffffffffffffffffffffffffffffffffffffff021916908373ffffffffffffffffffffffffffffffffffffffff1602179055505b6109e23330848673ffffffffffffffffffffffffffffffffffffffff1661163b909392919063ffffffff16565b81815f015f8573ffffffffffffffffffffffffffffffffffffffff1673ffffffffffffffffffffffffffffffffffffffff1681526020019081526020015f205f828254610a2f9190611ea8565b925050819055508160025f8573ffffffffffffffffffffffffffffffffffffffff1673ffffffffffffffffffffffffffffffffffffffff1681526020019081526020015f205f828254610a829190611ea8565b925050819055508160035f3373ffffffffffffffffffffffffffffffffffffffff1673ffffffffffffffffffffffffffffffffffffffff1681526020019081526020015f205f828254610ad59190611ea8565b925050819055503373ffffffffffffffffffffffffffffffffffffffff167fd782c85a6e36ccad8c0a0438cbd8ac1deb2d934d5d7f0931dce0c787ef1096e78385604051610b24929190611edb565b60405180910390a2505050565b60075f3373ffffffffffffffffffffffffffffffffffffffff1673ffffffffffffffffffffffffffffffffffffffff1681526020019081526020015f205f9054906101000a900460ff16610bba576040517f08c379a0000000000000000000000000000000000000000000000000000000008152600401610bb190611dcf565b60405180910390fd5b60015f8373ffffffffffffffffffffffffffffffffffffffff1673ffffffffffffffffffffffffffffffffffffffff1681526020019081526020015f206001015f9054906101000a900460ff16610c46576040517f08c379a0000000000000000000000000000000000000000000000000000000008152600401610c3d90611f4c565b60405180910390fd5b8060055f8473ffffffffffffffffffffffffffffffffffffffff1673ffffffffffffffffffffffffffffffffffffffff1681526020019081526020015f20819055505050565b6003602052805f5260405f205f915090505481565b6008602052805f5260405f205f915054906101000a900460ff1681565b5f73ffffffffffffffffffffffffffffffffffffffff168173ffffffffffffffffffffffffffffffffffffffff1614158015610d2657503373ffffffffffffffffffffffffffffffffffffffff168173ffffffffffffffffffffffffffffffffffffffff1614155b610d65576040517f08c379a0000000000000000000000000000000000000000000000000000000008152600401610d5c90611fb4565b60405180910390fd5b600160085f3373ffffffffffffffffffffffffffffffffffffffff1673ffffffffffffffffffffffffffffffffffffffff1681526020019081526020015f205f6101000a81548160ff0219169083151502179055503373ffffffffffffffffffffffffffffffffffffffff168173ffffffffffffffffffffffffffffffffffffffff167f9be71e54c914a5355f90883acdff2a1d75cebe9a1c6f15305d1fb0c28d7d7630610e4f60035f3373ffffffffffffffffffffffffffffffffffffffff1673ffffffffffffffffffffffffffffffffffffffff1681526020019081526020015f20546116c4565b604051610e5c9190611aea565b60405180910390a350565b6002602052805f5260405f205f915090505481565b600a5481565b600954600a54610e929190611ea8565b421015610ed4576040517f08c379a0000000000000000000000000000000000000000000000000000000008152600401610ecb9061201c565b60405180910390fd5b5f5b828290508110156111a8575f838383818110610ef557610ef461203a565b5b9050602002016020810190610f0a9190611a58565b90505f8173ffffffffffffffffffffffffffffffffffffffff166370a08231306040518263ffffffff1660e01b8152600401610f469190611ca8565b602060405180830381865afa158015610f61573d5f803e3d5ffd5b505050506040513d601f19601f82011682018060405250810190610f85919061207b565b90505f5b5f80549050811015611192575f808281548110610fa957610fa861203a565b5b905f5260205f20015f9054906101000a900473ffffffffffffffffffffffffffffffffffffffff1690505f60015f8373ffffffffffffffffffffffffffffffffffffffff1673ffffffffffffffffffffffffffffffffffffffff1681526020019081526020015f205f015f8673ffffffffffffffffffffffffffffffffffffffff1673ffffffffffffffffffffffffffffffffffffffff1681526020019081526020015f205490505f60025f8773ffffffffffffffffffffffffffffffffffffffff1673ffffffffffffffffffffffffffffffffffffffff1681526020019081526020015f2054858361109c91906120a6565b6110a69190612114565b90505f82826110b59190612144565b90505f81111561117b576110ea84828973ffffffffffffffffffffffffffffffffffffffff166116e59092919063ffffffff16565b8060015f8673ffffffffffffffffffffffffffffffffffffffff1673ffffffffffffffffffffffffffffffffffffffff1681526020019081526020015f205f015f8973ffffffffffffffffffffffffffffffffffffffff1673ffffffffffffffffffffffffffffffffffffffff1681526020019081526020015f205f8282546111739190611ea8565b925050819055505b50505050808061118a90612177565b915050610f89565b50505080806111a090612177565b915050610ed6565b5042600a819055505050565b60065f9054906101000a900473ffffffffffffffffffffffffffffffffffffffff1673ffffffffffffffffffffffffffffffffffffffff163373ffffffffffffffffffffffffffffffffffffffff1614611243576040517f08c379a000000000000000000000000000000000000000000000000000000000815260040161123a90611d41565b60405180910390fd5b8060048190555050565b60065f9054906101000a900473ffffffffffffffffffffffffffffffffffffffff1681565b60075f3373ffffffffffffffffffffffffffffffffffffffff1673ffffffffffffffffffffffffffffffffffffffff1681526020019081526020015f205f9054906101000a900460ff166112fb576040517f08c379a00000000000000000000000000000000000000000000000000000000081526004016112f290611dcf565b60405180910390fd5b5f60015f8373ffffffffffffffffffffffffffffffffffffffff1673ffffffffffffffffffffffffffffffffffffffff1681526020019081526020015f206003015f6101000a81548160ff02191690831515021790555050565b60045481565b5f811161139d576040517f08c379a00000000000000000000000000000000000000000000000000000000081526004016113949061222e565b60405180910390fd5b60015f3373ffffffffffffffffffffffffffffffffffffffff1673ffffffffffffffffffffffffffffffffffffffff1681526020019081526020015f205f015f8373ffffffffffffffffffffffffffffffffffffffff1673ffffffffffffffffffffffffffffffffffffffff1681526020019081526020015f205481111561145a576040517f08c379a000000000000000000000000000000000000000000000000000000000815260040161145190612296565b60405180910390fd5b60055f3373ffffffffffffffffffffffffffffffffffffffff1673ffffffffffffffffffffffffffffffffffffffff1681526020019081526020015f20544210156114da576040517f08c379a00000000000000000000000000000000000000000000000000000000081526004016114d1906122fe565b60405180910390fd5b8060015f3373ffffffffffffffffffffffffffffffffffffffff1673ffffffffffffffffffffffffffffffffffffffff1681526020019081526020015f205f015f8473ffffffffffffffffffffffffffffffffffffffff1673ffffffffffffffffffffffffffffffffffffffff1681526020019081526020015f205f8282546115639190612144565b925050819055508060025f8473ffffffffffffffffffffffffffffffffffffffff1673ffffffffffffffffffffffffffffffffffffffff1681526020019081526020015f205f8282546115b69190612144565b925050819055506115e833828473ffffffffffffffffffffffffffffffffffffffff166116e59092919063ffffffff16565b3373ffffffffffffffffffffffffffffffffffffffff167e1a143d5b175701cb3246058ffac3d63945192075a926ff73a19930f09d587a828460405161162f929190611edb565b60405180910390a25050565b6116be846323b872dd60e01b85858560405160240161165c9392919061231c565b604051602081830303815290604052907bffffffffffffffffffffffffffffffffffffffffffffffffffffffff19166020820180517bffffffffffffffffffffffffffffffffffffffffffffffffffffffff838183161783525050505061176b565b50505050565b5f60646002836116d491906120a6565b6116de9190612114565b9050919050565b6117668363a9059cbb60e01b8484604051602401611704929190612351565b604051602081830303815290604052907bffffffffffffffffffffffffffffffffffffffffffffffffffffffff19166020820180517bffffffffffffffffffffffffffffffffffffffffffffffffffffffff838183161783525050505061176b565b505050565b5f6117cc826040518060400160405280602081526020017f5361666545524332303a206c6f772d6c6576656c2063616c6c206661696c65648152508573ffffffffffffffffffffffffffffffffffffffff166118319092919063ffffffff16565b90505f815114806117ed5750808060200190518101906117ec91906123a2565b5b61182c576040517f08c379a00000000000000000000000000000000000000000000000000000000081526004016118239061243d565b60405180910390fd5b505050565b606061183f84845f85611848565b90509392505050565b60608247101561188d576040517f08c379a0000000000000000000000000000000000000000000000000000000008152600401611884906124cb565b60405180910390fd5b5f808673ffffffffffffffffffffffffffffffffffffffff1685876040516118b59190612555565b5f6040518083038185875af1925050503d805f81146118ef576040519150601f19603f3d011682016040523d82523d5f602084013e6118f4565b606091505b509150915061190587838387611911565b92505050949350505050565b60608315611972575f83510361196a5761192a85611985565b611969576040517f08c379a0000000000000000000000000000000000000000000000000000000008152600401611960906125b5565b60405180910390fd5b5b82905061197d565b61197c83836119a7565b5b949350505050565b5f808273ffffffffffffffffffffffffffffffffffffffff163b119050919050565b5f825111156119b95781518083602001fd5b806040517f08c379a00000000000000000000000000000000000000000000000000000000081526004016119ed9190612625565b60405180910390fd5b5f80fd5b5f80fd5b5f73ffffffffffffffffffffffffffffffffffffffff82169050919050565b5f611a27826119fe565b9050919050565b611a3781611a1d565b8114611a41575f80fd5b50565b5f81359050611a5281611a2e565b92915050565b5f60208284031215611a6d57611a6c6119f6565b5b5f611a7a84828501611a44565b91505092915050565b5f8115159050919050565b611a9781611a83565b82525050565b5f819050919050565b611aaf81611a9d565b82525050565b5f606082019050611ac85f830186611a8e565b611ad56020830185611aa6565b611ae26040830184611a8e565b949350505050565b5f602082019050611afd5f830184611aa6565b92915050565b5f602082019050611b165f830184611a8e565b92915050565b5f8060408385031215611b3257611b316119f6565b5b5f611b3f85828601611a44565b9250506020611b5085828601611a44565b9150509250929050565b611b6381611a9d565b8114611b6d575f80fd5b50565b5f81359050611b7e81611b5a565b92915050565b5f60208284031215611b9957611b986119f6565b5b5f611ba684828501611b70565b91505092915050565b5f8060408385031215611bc557611bc46119f6565b5b5f611bd285828601611a44565b9250506020611be385828601611b70565b9150509250929050565b5f80fd5b5f80fd5b5f80fd5b5f8083601f840112611c0e57611c0d611bed565b5b8235905067ffffffffffffffff811115611c2b57611c2a611bf1565b5b602083019150836020820283011115611c4757611c46611bf5565b5b9250929050565b5f8060208385031215611c6457611c636119f6565b5b5f83013567ffffffffffffffff811115611c8157611c806119fa565b5b611c8d85828601611bf9565b92509250509250929050565b611ca281611a1d565b82525050565b5f602082019050611cbb5f830184611c99565b92915050565b5f82825260208201905092915050565b7f4f6e6c7920706f6f6c206f776e65722063616e20706572666f726d20746869735f8201527f20616374696f6e00000000000000000000000000000000000000000000000000602082015250565b5f611d2b602783611cc1565b9150611d3682611cd1565b604082019050919050565b5f6020820190508181035f830152611d5881611d1f565b9050919050565b7f4f6e6c792061646d696e732063616e20706572666f726d2074686973206163745f8201527f696f6e0000000000000000000000000000000000000000000000000000000000602082015250565b5f611db9602383611cc1565b9150611dc482611d5f565b604082019050919050565b5f6020820190508181035f830152611de681611dad565b9050919050565b7f436f6e747269627574696f6e20616d6f756e74206d75737420626520677265615f8201527f746572207468616e207a65726f00000000000000000000000000000000000000602082015250565b5f611e47602d83611cc1565b9150611e5282611ded565b604082019050919050565b5f6020820190508181035f830152611e7481611e3b565b9050919050565b7f4e487b71000000000000000000000000000000000000000000000000000000005f52601160045260245ffd5b5f611eb282611a9d565b9150611ebd83611a9d565b9250828201905080821115611ed557611ed4611e7b565b5b92915050565b5f604082019050611eee5f830185611aa6565b611efb6020830184611c99565b9392505050565b7f5061727469636970616e7420646f6573206e6f742065786973740000000000005f82015250565b5f611f36601a83611cc1565b9150611f4182611f02565b602082019050919050565b5f6020820190508181035f830152611f6381611f2a565b9050919050565b7f496e76616c6964207265666572656520616464726573730000000000000000005f82015250565b5f611f9e601783611cc1565b9150611fa982611f6a565b602082019050919050565b5f6020820190508181035f830152611fcb81611f92565b9050919050565b7f526562616c616e636520696e74657276616c206e6f74207265616368656400005f82015250565b5f612006601e83611cc1565b915061201182611fd2565b602082019050919050565b5f6020820190508181035f83015261203381611ffa565b9050919050565b7f4e487b71000000000000000000000000000000000000000000000000000000005f52603260045260245ffd5b5f8151905061207581611b5a565b92915050565b5f602082840312156120905761208f6119f6565b5b5f61209d84828501612067565b91505092915050565b5f6120b082611a9d565b91506120bb83611a9d565b92508282026120c981611a9d565b915082820484148315176120e0576120df611e7b565b5b5092915050565b7f4e487b71000000000000000000000000000000000000000000000000000000005f52601260045260245ffd5b5f61211e82611a9d565b915061212983611a9d565b925082612139576121386120e7565b5b828204905092915050565b5f61214e82611a9d565b915061215983611a9d565b925082820390508181111561217157612170611e7b565b5b92915050565b5f61218182611a9d565b91507fffffffffffffffffffffffffffffffffffffffffffffffffffffffffffffffff82036121b3576121b2611e7b565b5b600182019050919050565b7f5769746864726177616c20616d6f756e74206d757374206265206772656174655f8201527f72207468616e207a65726f000000000000000000000000000000000000000000602082015250565b5f612218602b83611cc1565b9150612223826121be565b604082019050919050565b5f6020820190508181035f8301526122458161220c565b9050919050565b7f496e73756666696369656e742062616c616e63650000000000000000000000005f82015250565b5f612280601483611cc1565b915061228b8261224c565b602082019050919050565b5f6020820190508181035f8301526122ad81612274565b9050919050565b7f46756e647320617265207374696c6c206c6f636b6564207570000000000000005f82015250565b5f6122e8601983611cc1565b91506122f3826122b4565b602082019050919050565b5f6020820190508181035f830152612315816122dc565b9050919050565b5f60608201905061232f5f830186611c99565b61233c6020830185611c99565b6123496040830184611aa6565b949350505050565b5f6040820190506123645f830185611c99565b6123716020830184611aa6565b9392505050565b61238181611a83565b811461238b575f80fd5b50565b5f8151905061239c81612378565b92915050565b5f602082840312156123b7576123b66119f6565b5b5f6123c48482850161238e565b91505092915050565b7f5361666545524332303a204552433230206f7065726174696f6e20646964206e5f8201527f6f74207375636365656400000000000000000000000000000000000000000000602082015250565b5f612427602a83611cc1565b9150612432826123cd565b604082019050919050565b5f6020820190508181035f8301526124548161241b565b9050919050565b7f416464726573733a20696e73756666696369656e742062616c616e636520666f5f8201527f722063616c6c0000000000000000000000000000000000000000000000000000602082015250565b5f6124b5602683611cc1565b91506124c08261245b565b604082019050919050565b5f6020820190508181035f8301526124e2816124a9565b9050919050565b5f81519050919050565b5f81905092915050565b5f5b8381101561251a5780820151818401526020810190506124ff565b5f8484015250505050565b5f61252f826124e9565b61253981856124f3565b93506125498185602086016124fd565b80840191505092915050565b5f6125608284612525565b915081905092915050565b7f416464726573733a2063616c6c20746f206e6f6e2d636f6e74726163740000005f82015250565b5f61259f601d83611cc1565b91506125aa8261256b565b602082019050919050565b5f6020820190508181035f8301526125cc81612593565b9050919050565b5f81519050919050565b5f601f19601f8301169050919050565b5f6125f7826125d3565b6126018185611cc1565b93506126118185602086016124fd565b61261a816125dd565b840191505092915050565b5f6020820190508181035f83015261263d81846125ed565b90509291505056fea264697066735822122008ad9cefe60666659a9d15773ef0947401eb9a7bc0e2f05725684ac794f6a60964736f6c63430008140033",
  "immutableReferences": {},
  "source": "// SPDX-License-Identifier: MIT\npragma solidity ^0.8.0;\n\nimport \"@openzeppelin/contracts/token/ERC20/IERC20.sol\";\nimport \"@openzeppelin/contracts/token/ERC20/utils/SafeERC20.sol\";\n\ncontract DynamicCashPool {\n    using SafeERC20 for IERC20;\n\n    struct Participant {\n        mapping(address => uint256) balances;\n        bool exists;\n        uint256 joinedTimestamp;\n        bool isWhitelisted;\n    }\n\n    address[] private participantsArray;\n    mapping(address => Participant) public participants;\n    mapping(address => uint256) public totalBalances;\n    mapping(address => uint256) public contributionAmounts;\n\n    uint256 public lockupPeriod; // Lock-up period in seconds\n    mapping(address => uint256) public vestingTimestamps; // Vesting timestamps for participants\n\n    address public poolOwner;\n    mapping(address => bool) public admins;\n    mapping(address => bool) public referrals;\n\n    uint256 public rebalanceInterval; // Interval for automatic rebalancing in seconds\n    uint256 public lastRebalanceTimestamp; // Timestamp of the last rebalance\n\n    event Contribution(address indexed participant, uint256 amount, address token);\n    event Withdrawal(address indexed participant, uint256 amount, address token);\n    event ReferralBonus(address indexed participant, address indexed referee, uint256 bonusAmount);\n\n    constructor(uint256 _lockupPeriod, uint256 _rebalanceInterval) {\n        poolOwner = msg.sender;\n        lockupPeriod = _lockupPeriod;\n        rebalanceInterval = _rebalanceInterval;\n        admins[msg.sender] = true;\n    }\n\n    modifier onlyPoolOwner() {\n        require(msg.sender == poolOwner, \"Only pool owner can perform this action\");\n        _;\n    }\n\n    modifier onlyAdmin() {\n        require(admins[msg.sender], \"Only admins can perform this action\");\n        _;\n    }\n\n    function contribute(address token, uint256 amount) external {\n        require(amount > 0, \"Contribution amount must be greater than zero\");\n\n        Participant storage participant = participants[msg.sender];\n        if (!participant.exists) {\n            participant.exists = true;\n            participant.joinedTimestamp = block.timestamp;\n            participant.isWhitelisted = false;\n            participantsArray.push(msg.sender);\n        }\n\n        IERC20(token).safeTransferFrom(msg.sender, address(this), amount);\n        participant.balances[token] += amount;\n        totalBalances[token] += amount;\n        contributionAmounts[msg.sender] += amount;\n\n        emit Contribution(msg.sender, amount, token);\n    }\n\n    function withdraw(address token, uint256 amount) external {\n        require(amount > 0, \"Withdrawal amount must be greater than zero\");\n        require(amount <= participants[msg.sender].balances[token], \"Insufficient balance\");\n        require(block.timestamp >= vestingTimestamps[msg.sender], \"Funds are still locked up\");\n\n        participants[msg.sender].balances[token] -= amount;\n        totalBalances[token] -= amount;\n\n        IERC20(token).safeTransfer(msg.sender, amount);\n\n        emit Withdrawal(msg.sender, amount, token);\n    }\n\n    function addAdmin(address admin) external onlyPoolOwner {\n        admins[admin] = true;\n    }\n\n    function removeAdmin(address admin) external onlyPoolOwner {\n        delete admins[admin];\n    }\n\n    function whitelistParticipant(address participant) external onlyAdmin {\n        participants[participant].isWhitelisted = true;\n    }\n\n    function removeWhitelistedParticipant(address participant) external onlyAdmin {\n        participants[participant].isWhitelisted = false;\n    }\n\n    function setVestingTimestamp(address participant, uint256 timestamp) external onlyAdmin {\n        require(participants[participant].exists, \"Participant does not exist\");\n\n        vestingTimestamps[participant] = timestamp;\n    }\n\n    function setReferral(address referee) external {\n        require(referee != address(0) && referee != msg.sender, \"Invalid referee address\");\n\n        referrals[msg.sender] = true;\n        emit ReferralBonus(referee, msg.sender, calculateReferralBonus(contributionAmounts[msg.sender]));\n    }\n\n    function calculateReferralBonus(uint256 amount) internal pure returns (uint256) {\n        // Calculate referral bonus as 2% of the contribution amount\n        return (amount * 2) / 100;\n    }\n\n    function getParticipantBalance(address participant, address token) external view returns (uint256) {\n        return participants[participant].balances[token];\n    }\n\n    function setLockupPeriod(uint256 period) external onlyPoolOwner {\n        lockupPeriod = period;\n    }\n\n    function setRebalanceInterval(uint256 interval) external onlyPoolOwner {\n        rebalanceInterval = interval;\n    }\n\n    function rebalance(address[] calldata tokens) external {\n        require(\n            block.timestamp >= lastRebalanceTimestamp + rebalanceInterval,\n            \"Rebalance interval not reached\"\n        );\n\n        for (uint256 i = 0; i < tokens.length; i++) {\n            address token = tokens[i];\n            uint256 totalBalance = IERC20(token).balanceOf(address(this));\n\n            for (uint256 j = 0; j < participantsArray.length; j++) {\n                address participant = participantsArray[j];\n                uint256 participantBalance = participants[participant].balances[token];\n                uint256 targetBalance = (participantBalance * totalBalance) / totalBalances[token];\n                uint256 diff = targetBalance - participantBalance;\n\n                if (diff > 0) {\n                    IERC20(token).safeTransfer(participant, diff);\n                    participants[participant].balances[token] += diff;\n                }\n            }\n        }\n\n        lastRebalanceTimestamp = block.timestamp;\n    }\n}\n",
  "sourcePath": "/Users/ronitbanerjee/Documents/HACKATHON/web3/contracts/first.sol",
  "compiler": {
    "name": "solc",
    "version": "0.8.20+commit.a1b79de6.Emscripten.clang"
  },
  "schemaVersion": "3.4.14",
  "updatedAt": "2023-07-15T18:30:13.145Z",
  "devdoc": {
    "kind": "dev",
    "methods": {},
    "version": 1
  },
  "userdoc": {
    "kind": "user",
    "methods": {},
    "version": 1
  }
}