{
  "contractName": "Token",
  "abi": [
    {
      "inputs": [
        {
          "internalType": "string",
          "name": "_name",
          "type": "string"
        },
        {
          "internalType": "string",
          "name": "_symbol",
          "type": "string"
        },
        {
          "internalType": "uint256",
          "name": "_initialSupply",
          "type": "uint256"
        }
      ],
      "stateMutability": "nonpayable",
      "type": "constructor"
    },
    {
      "anonymous": false,
      "inputs": [
        {
          "indexed": true,
          "internalType": "address",
          "name": "from",
          "type": "address"
        },
        {
          "indexed": true,
          "internalType": "address",
          "name": "to",
          "type": "address"
        },
        {
          "indexed": false,
          "internalType": "uint256",
          "name": "value",
          "type": "uint256"
        }
      ],
      "name": "Transfer",
      "type": "event"
    },
    {
      "inputs": [
        {
          "internalType": "address",
          "name": "",
          "type": "address"
        }
      ],
      "name": "balances",
      "outputs": [
        {
          "internalType": "uint256",
          "name": "",
          "type": "uint256"
        }
      ],
      "stateMutability": "view",
      "type": "function"
    },
    {
      "inputs": [],
      "name": "name",
      "outputs": [
        {
          "internalType": "string",
          "name": "",
          "type": "string"
        }
      ],
      "stateMutability": "view",
      "type": "function"
    },
    {
      "inputs": [],
      "name": "symbol",
      "outputs": [
        {
          "internalType": "string",
          "name": "",
          "type": "string"
        }
      ],
      "stateMutability": "view",
      "type": "function"
    },
    {
      "inputs": [],
      "name": "totalSupply",
      "outputs": [
        {
          "internalType": "uint256",
          "name": "",
          "type": "uint256"
        }
      ],
      "stateMutability": "view",
      "type": "function"
    },
    {
      "inputs": [
        {
          "internalType": "address",
          "name": "to",
          "type": "address"
        },
        {
          "internalType": "uint256",
          "name": "value",
          "type": "uint256"
        }
      ],
      "name": "transfer",
      "outputs": [],
      "stateMutability": "nonpayable",
      "type": "function"
    }
  ],
  "bytecode": "0x608060405234801562000010575f80fd5b5060405162000d3938038062000d39833981810160405281019062000036919062000268565b825f90816200004691906200052d565b5081600190816200005891906200052d565b50806002819055508060035f3373ffffffffffffffffffffffffffffffffffffffff1673ffffffffffffffffffffffffffffffffffffffff1681526020019081526020015f208190555050505062000611565b5f604051905090565b5f80fd5b5f80fd5b5f80fd5b5f80fd5b5f601f19601f8301169050919050565b7f4e487b71000000000000000000000000000000000000000000000000000000005f52604160045260245ffd5b6200010c82620000c4565b810181811067ffffffffffffffff821117156200012e576200012d620000d4565b5b80604052505050565b5f62000142620000ab565b905062000150828262000101565b919050565b5f67ffffffffffffffff821115620001725762000171620000d4565b5b6200017d82620000c4565b9050602081019050919050565b5f5b83811015620001a95780820151818401526020810190506200018c565b5f8484015250505050565b5f620001ca620001c48462000155565b62000137565b905082815260208101848484011115620001e957620001e8620000c0565b5b620001f68482856200018a565b509392505050565b5f82601f830112620002155762000214620000bc565b5b815162000227848260208601620001b4565b91505092915050565b5f819050919050565b620002448162000230565b81146200024f575f80fd5b50565b5f81519050620002628162000239565b92915050565b5f805f60608486031215620002825762000281620000b4565b5b5f84015167ffffffffffffffff811115620002a257620002a1620000b8565b5b620002b086828701620001fe565b935050602084015167ffffffffffffffff811115620002d457620002d3620000b8565b5b620002e286828701620001fe565b9250506040620002f58682870162000252565b9150509250925092565b5f81519050919050565b7f4e487b71000000000000000000000000000000000000000000000000000000005f52602260045260245ffd5b5f60028204905060018216806200034e57607f821691505b60208210810362000364576200036362000309565b5b50919050565b5f819050815f5260205f209050919050565b5f6020601f8301049050919050565b5f82821b905092915050565b5f60088302620003c87fffffffffffffffffffffffffffffffffffffffffffffffffffffffffffffffff826200038b565b620003d486836200038b565b95508019841693508086168417925050509392505050565b5f819050919050565b5f620004156200040f620004098462000230565b620003ec565b62000230565b9050919050565b5f819050919050565b6200043083620003f5565b620004486200043f826200041c565b84845462000397565b825550505050565b5f90565b6200045e62000450565b6200046b81848462000425565b505050565b5b818110156200049257620004865f8262000454565b60018101905062000471565b5050565b601f821115620004e157620004ab816200036a565b620004b6846200037c565b81016020851015620004c6578190505b620004de620004d5856200037c565b83018262000470565b50505b505050565b5f82821c905092915050565b5f620005035f1984600802620004e6565b1980831691505092915050565b5f6200051d8383620004f2565b9150826002028217905092915050565b6200053882620002ff565b67ffffffffffffffff811115620005545762000553620000d4565b5b62000560825462000336565b6200056d82828562000496565b5f60209050601f831160018114620005a3575f84156200058e578287015190505b6200059a858262000510565b86555062000609565b601f198416620005b3866200036a565b5f5b82811015620005dc57848901518255600182019150602085019450602081019050620005b5565b86831015620005fc5784890151620005f8601f891682620004f2565b8355505b6001600288020188555050505b505050505050565b61071a806200061f5f395ff3fe608060405234801561000f575f80fd5b5060043610610055575f3560e01c806306fdde031461005957806318160ddd1461007757806327e235e31461009557806395d89b41146100c5578063a9059cbb146100e3575b5f80fd5b6100616100ff565b60405161006e919061044a565b60405180910390f35b61007f61018a565b60405161008c9190610482565b60405180910390f35b6100af60048036038101906100aa91906104f9565b610190565b6040516100bc9190610482565b60405180910390f35b6100cd6101a5565b6040516100da919061044a565b60405180910390f35b6100fd60048036038101906100f8919061054e565b610231565b005b5f805461010b906105b9565b80601f0160208091040260200160405190810160405280929190818152602001828054610137906105b9565b80156101825780601f1061015957610100808354040283529160200191610182565b820191905f5260205f20905b81548152906001019060200180831161016557829003601f168201915b505050505081565b60025481565b6003602052805f5260405f205f915090505481565b600180546101b2906105b9565b80601f01602080910402602001604051908101604052809291908181526020018280546101de906105b9565b80156102295780601f1061020057610100808354040283529160200191610229565b820191905f5260205f20905b81548152906001019060200180831161020c57829003601f168201915b505050505081565b8060035f3373ffffffffffffffffffffffffffffffffffffffff1673ffffffffffffffffffffffffffffffffffffffff1681526020019081526020015f205410156102b1576040517f08c379a00000000000000000000000000000000000000000000000000000000081526004016102a890610633565b60405180910390fd5b8060035f3373ffffffffffffffffffffffffffffffffffffffff1673ffffffffffffffffffffffffffffffffffffffff1681526020019081526020015f205f8282546102fd919061067e565b925050819055508060035f8473ffffffffffffffffffffffffffffffffffffffff1673ffffffffffffffffffffffffffffffffffffffff1681526020019081526020015f205f82825461035091906106b1565b925050819055508173ffffffffffffffffffffffffffffffffffffffff163373ffffffffffffffffffffffffffffffffffffffff167fddf252ad1be2c89b69c2b068fc378daa952ba7f163c4a11628f55a4df523b3ef836040516103b49190610482565b60405180910390a35050565b5f81519050919050565b5f82825260208201905092915050565b5f5b838110156103f75780820151818401526020810190506103dc565b5f8484015250505050565b5f601f19601f8301169050919050565b5f61041c826103c0565b61042681856103ca565b93506104368185602086016103da565b61043f81610402565b840191505092915050565b5f6020820190508181035f8301526104628184610412565b905092915050565b5f819050919050565b61047c8161046a565b82525050565b5f6020820190506104955f830184610473565b92915050565b5f80fd5b5f73ffffffffffffffffffffffffffffffffffffffff82169050919050565b5f6104c88261049f565b9050919050565b6104d8816104be565b81146104e2575f80fd5b50565b5f813590506104f3816104cf565b92915050565b5f6020828403121561050e5761050d61049b565b5b5f61051b848285016104e5565b91505092915050565b61052d8161046a565b8114610537575f80fd5b50565b5f8135905061054881610524565b92915050565b5f80604083850312156105645761056361049b565b5b5f610571858286016104e5565b92505060206105828582860161053a565b9150509250929050565b7f4e487b71000000000000000000000000000000000000000000000000000000005f52602260045260245ffd5b5f60028204905060018216806105d057607f821691505b6020821081036105e3576105e261058c565b5b50919050565b7f496e73756666696369656e742062616c616e63650000000000000000000000005f82015250565b5f61061d6014836103ca565b9150610628826105e9565b602082019050919050565b5f6020820190508181035f83015261064a81610611565b9050919050565b7f4e487b71000000000000000000000000000000000000000000000000000000005f52601160045260245ffd5b5f6106888261046a565b91506106938361046a565b92508282039050818111156106ab576106aa610651565b5b92915050565b5f6106bb8261046a565b91506106c68361046a565b92508282019050808211156106de576106dd610651565b5b9291505056fea2646970667358221220d4a967517f987969d9703b6c56f50d7adbdfe67d9a1ecba6d545c1f186ea89c264736f6c63430008140033",
  "immutableReferences": {},
  "source": "// SPDX-License-Identifier: MIT\npragma solidity ^0.8.0;\n\ncontract Token {\n    string public name;\n    string public symbol;\n    uint256 public totalSupply;\n    mapping(address => uint256) public balances;\n\n    event Transfer(address indexed from, address indexed to, uint256 value);\n\n    constructor(string memory _name, string memory _symbol, uint256 _initialSupply) {\n        name = _name;\n        symbol = _symbol;\n        totalSupply = _initialSupply;\n        balances[msg.sender] = _initialSupply;\n    }\n\n    function transfer(address to, uint256 value) external {\n        require(balances[msg.sender] >= value, \"Insufficient balance\");\n\n        balances[msg.sender] -= value;\n        balances[to] += value;\n\n        emit Transfer(msg.sender, to, value);\n    }\n}",
  "sourcePath": "/Users/ronitbanerjee/Documents/HACKATHON/web3/contracts/token.sol",
  "compiler": {
    "name": "solc",
    "version": "0.8.20+commit.a1b79de6.Emscripten.clang"
  },
  "schemaVersion": "3.4.14",
  "updatedAt": "2023-07-15T18:30:13.160Z",
  "devdoc": {
    "kind": "dev",
    "methods": {},
    "version": 1
  },
  "userdoc": {
    "kind": "user",
    "methods": {},
    "version": 1
  }
}